:020000040800F2
:1000000098B00420F1010008E5BF0108319401080F
:10001000C19C01087BBA0008AD6402080000000022
:100020000000000000000000000000008F15020822
:10003000710C0108000000005F020008E1D5010812
:100040000B0200080B0200080B0200080B0200085C
:100050000B0200080B0200080B0200080B0200084C
:100060000B0200080B0200080B0200080B0200083C
:100070000B0200080B0200080B0200080B0200082C
:100080000B0200080B0200080B020008CFBA0008A0
:10009000AFBA00080B0200080B0200080B020008B0
:1000A0000B0200080B0200080B0200080B020008FC
:1000B0000B0200080B0200080B0200080B020008EC
:1000C0000B0200080B0200080B0200080B020008DC
:1000D0000B02000889510208AD510208D1510208F3
:1000E0000B0200080B0200080B0200080B020008BC
:1000F0000B0200080B0200080B0200080B020008AC
:100100000B020008150E02080B0200080B02000883
:10011000294802089D4802080B0200080B0200084B
:100120000B0200080B0200080B0200083D0A010840
:100130000B0200080B0200080B0200080FBB0008AE
:10014000EFBA00080B0200080B02000861DC01088E
:100150000B0200080B0200080B020008F551020810
:100160000B0200080B0200084FBB00082FBB000861
:100170000B0200080B020008000000000B02000840
:100180000B0200080B020008954902080D4A0208FC
:100190000B0200080B020008000000000B02000820
:1001A0000B0200080B020008000000000000000025
:1001B0000B02000800000000000000000B02000815
:1001C0000B0200080B0200080B0200080B020008DB
:1001D0000B0200080B020008DFF810D000F016FC3C
:1001E0000048004781C10208AFF3008098B00420A6
:1001F0000648804706480047FEE7FEE7FEE7FEE7C1
:10020000FEE7FEE7FEE7FEE7FEE7FEE79D2B0208BE
:10021000D9010008EFF3108072B6704780F31088A0
:10022000704726484FF0FF010170002080F30988D5
:100230002348016881F3088822480121017022487F
:100240004FF08051016062B6FEE71F484FF08051C9
:10025000016070471C484FF080510160704772B6D2
:100260002EF01F0E4EF0090EEFF3098050B11EF074
:10027000100F08BF20ED108A203880E8F00F1349D6
:100280000968086000B5124880475DF804EB114822
:1002900011490A7802700D4810490A680260106816
:1002A00090E8F00F20301EF0100F08BFB0EC108A5D
:1002B00080F309884EF0040E62B6704722ED00E02C
:1002C000180000202300002004ED00E0440000207E
:1002D000F1D1010820000020210000204C00002066
:1002E0002DE9F05F0546002092469B46884606466B
:1002F000814640241BE0284641464746224600F0FE
:10030000B5FA53465A46C01A914110D311461846C1
:10031000224600F016F82D1A67EB01084F462246D8
:100320000120002100F00DF817EB00094E41201EBE
:10033000A4F10104DFDC484631462A464346BDE8C5
:10034000F09F202A04DB203A00FA02F100207047D7
:100350009140C2F1200320FA03F319439040704703
:1003600040EA01039B0703D009E008C9121F08C037
:10037000042AFAD203E011F8013B00F8013B521EB7
:10038000F9D27047D2B201E000F8012B491EFBD22E
:1003900070470022F6E710B513460A460446194690
:1003A000FFF7F0FF204610BD30B505462A460B4644
:1003B00012F8010B13F8014B08B1A042F8D01CB1A0
:1003C000002802D06D1CF1E7284630BD421C10F811
:1003D000011B0029FBD1801A704710B5002200E0F4
:1003E000521C835C8C5CA34201D1002BF8D1D8B2A3
:1003F000E1B2401A10BD30B504460020034600E0CB
:100400005B1C934203D2E05CCD5C401BF8D030BD56
:1004100030B505460020034600E05B1C934205D240
:10042000EC5CC85C201A01D1002CF6D130BD000074
:1004300070B50F4D00B92868002412E00A4602E0AA
:100440009E4203D0521C1378002BF9D1DAB222431A
:1004500005D02BB124B1002100F8011B04E00446B3
:10046000401C0678002EE9D12860204670BD0000AF
:10047000D01F002070B506462AF01AFA0468054617
:100480000A220021304600F013FA2C6070BD2DE9DD
:10049000FE4F804681EA0300C00F0C46009021F019
:1004A000004123F00045B8EB0200A94105D24046C7
:1004B000214690461C460B46024623F0004010435E
:1004C00047D0270DC7F30A00C3F30A510290401A20
:1004D000019040286BDAC3F3130040F4801B0098AE
:1004E000924620B10023D2EB030A63EB0B0B019879
:1004F0005946C0F140025046FFF723FF06460D461D
:1005000050465946019A00F0C1F910EB08006141CC
:10051000002487EA115284EAE7731A4340D0009A14
:1005200062B3019A012A4FEA075215DC001B61EB06
:1005300002014FF0004202EA0752CDE90042001CDE
:1005400041F5801132462B4600F0F9F903B0BDE8C1
:10055000F08F40462146F9E7001B61EB0201001CC9
:1005600041F5801300185B412018A2F5001747EBF6
:10057000030140EAD570B6196D4111E06D084FEAEC
:10058000360645EAC0754FEA0752001B61EB0201CF
:10059000001C41F5801149084FEA30000019514113
:1005A00032462B4603B0BDE8F04F00F0B9B90098D1
:1005B000012240000023D0EB020263EBE0730098BD
:1005C00021464FEAE074B8EB000061EB0401E9E773
:1005D00083F000435BE781F0004158E72DE9FE4FCF
:1005E00081EA030404F0004421F0004100944FF03C
:1005F000000B23F0004350EA01045ED052EA0304EA
:100600005BD0C3F30A54C1F30A552C44A4F2F3346B
:100610000194A0FB0254C1F3130141F48011C3F310
:10062000130343F4801301FB024400FB034E840ACE
:10063000970A44EA815447EA8357A4FB0768029566
:100640008D0A05FB07854FEA932C04FB0C54270504
:10065000029D4FEA065847EA1637B5EB08056EEBE0
:10066000070C870E920E47EA811742EA8312A7FB16
:100670000201B6EB0B0164EB00042B0D43EA0C33D3
:100680005E1844EB1C50DA465146E7FB0201C5F305
:1006900013044FEA0B3343EA14534FEA0432019C2C
:1006A00043EA0603A4F10C040294009CCDE900B4D3
:1006B00000F045F903B0BDE8F08F00200146F9E7EE
:1006C0002DE9F04D81EA030404F0004B21F00045D0
:1006D00014464FF0000A23F0004150EA050220D0F2
:1006E00054EA01021DD0C5F30A570246C5F31303AD
:1006F000C1F31300C1F30A5640F4801543F480138C
:10070000A7EB0608101BD64608F2FD3873EB050070
:1007100002D308F1010801E092185B41B8F1000F23
:1007200003DA00200146BDE8F08D00204FF480116F
:10073000064684460EE0171B73EB050705D3121B14
:1007400063EB050306434CEA010C49084FEA30000D
:1007500092185B4150EA0107EDD152EA030012D032
:1007600082EA040083EA0501084305D0101BAB416F
:1007700006D20122002306E000224FF0004302E0EF
:100780006FF0010253101AEB06004CEB085110EB0E
:100790000A0041EB0B01BDE8F04D00F0C1B80EB509
:1007A00040F2334102910021CDE900110A460B4687
:1007B00000F0C5F803B000BDC1F30A5210B5C1F393
:1007C000130140F2FF3341F480119A4201DA002014
:1007D00010BD40F233439A42A2F2334203DC52424C
:1007E00000F044F810BD904010BD00F0004230F021
:1007F00000400AD0C10D01F56071C0F3160042EA55
:100800000151C2084007114370470020014670475C
:1008100030B5041E71F1000404DB4FF00044404287
:1008200064EB0101141E73F1000405DB1C464FF05C
:100830000043524263EB0403994208BF904230BD2B
:1008400030B50B46014600202022012409E021FAA0
:1008500002F59D4205D303FA02F5491B04FA02F59D
:100860002844151EA2F10102F1DC30BD202A04DB70
:10087000203A21FA02F00021704721FA02F3D04019
:10088000C2F120029140084319467047202A06DB36
:10089000CB17203A41FA02F043EAE07306E041FA4E
:1008A00002F3D040C2F1200291400843194670473C
:1008B0002DE9F04791460F4680460446002614F87D
:1008C000015B2DB100F0B4F80068405DC007F6D1BF
:1008D0002B2D02D02D2D18D0641E4A4639462046B5
:1008E00000F0AAF827B13968A14201D1C7F8008009
:1008F00071054FF002040BD54042002803DD29F0BA
:10090000D7FF0460A007BDE8F08746F48066E4E7FF
:100910000028F8DA29F0CCFF04606FF00040F2E71D
:1009200010B5141E73F1000408DA401C41F10001F7
:1009300092185B411A4301D120F0010010BD2DE94E
:10094000F04D92469B4611B1B1FA81F202E0B0FA45
:1009500080F220329046FFF7F4FC04460F4640EA4E
:100960000A0041EA0B0153465A46084313D0114688
:1009700053EA010019D0C8F140025046FFF776FF54
:1009800005460E46504659464246FFF7DAFC0843F4
:1009900005D0012004E020463946BDE8F08D002056
:1009A000054346EAE0762C4337430A986305E40A98
:1009B000A0EB08000022FD0A44EA47540A3002D5A1
:1009C00000200146E9E7010510196941DDE9084504
:1009D00000196941BDE8F04DA2E7C1F30A52C1F325
:1009E000130140F2FF3341F480119A4202DA0020F1
:1009F0000146704740F233439A42A2F2334202DC8E
:100A00005242FFF733BFFFF79CBC0000064C074D76
:100A100006E0E06840F0010394E8070098471034CE
:100A2000AC42F6D3FFF7DCFBA8E90208C8E90208EC
:100A300000487047C0DD02082DE9F05F824600786B
:100A4000002715468B460AF10104B946302801D02B
:100A50009DB113E014F8010B0127782803D0582822
:100A600001D045B10AE00DB1102D07D100271025A6
:100A700014F8010B02E0082500E00A250026B04624
:100A80000EE005FB080005FB06F1012701EB10460F
:100A90001FFA80F8B6F5803F00D3B94614F8010B71
:100AA000294600F018F80028EBDABBF1000F05D05A
:100AB0000FB1641E00E05446CBF80040B9F1000FBE
:100AC00006D029F0F5FE02210160C81EBDE8F09FA6
:100AD00048EA0640FAE73A2800D2303820F02002EF
:100AE000412A01D3A2F13700884201D34FF0FF30F1
:100AF000704770B58C1810F8015B15F0070301D131
:100B000010F8013B2A1106D110F8012B03E010F870
:100B1000016B01F8016B5B1EF9D12B0705D4002393
:100B2000521E0DD401F8013BFAE710F8013BCB1A35
:100B3000921C03E013F8015B01F8015B521EF9D52A
:100B4000A142D8D3002070BD002904D0816841F0B3
:100B5000010181607047816821F001018160704767
:100B600010B5074C226807490A40D0E90013194321
:100B7000D0E90230034319431143216010BD000046
:100B800004230140E030FCFF002904D0816841F4D7
:100B9000807181607047816821F480718160704745
:100BA000002904D0816841F4007181607047816838
:100BB00021F400718160704710B501210C022046BC
:100BC0001EF090FB2046BDE8104000211EF08ABBBD
:100BD00030B542680F4B1A400C790B6842EA042288
:100BE0001343436083680C4A1340D1E90342224314
:100BF0004D798C6844EA450422431A438260C26AF4
:100C000022F47002097D491EC9B242EA0151C16253
:100C100030BD0000FFFEFFFCFDF7FFC070B50726EA
:100C200009290AD9C568A1F10A0404EB4404A640C5
:100C3000B543A3401D43C56007E0056901EB4104CE
:100C4000A640B543A3401D4305611F23072A09D2CF
:100C5000446B521E02EB820293409C4391400C4332
:100C6000446370BD0D2A09D2046BD21F02EB8202CD
:100C700093409C4391400C43046370BDC46A0D3A99
:100C800002EB820293409C4391400C43C46270BDCE
:100C9000816841F0804181607047002101600171ED
:100CA00041718160C16001610121017570470000DF
:100CB00030B40B4A0021437812F83140A34208D1E6
:100CC00002EBC104646824B102EBC101496830BC85
:100CD0000847491CC9B20E29EED330BC002070472A
:100CE00090D9020800B5002805D0002013F0AEFC12
:100CF000012802D008E0002000BD044901220020A4
:100D0000CA72002121F032FB012000BDE48A0220DA
:100D100000B5002805D0012013F098FC012802D06E
:100D200008E0002000BD0449012081F88000002176
:100D300021F01CFB012000BDE48A02202DE9F047D0
:100D400091461F46022835D21B4A02EB80052980B6
:100D5000B9FBF7F101F0FF08184A00EB4001B72397
:100D600002F8213002EB81062D237370307275601A
:100D70000124DFF84CA00CE008FB04F06880314649
:100D8000DAF800001BF028FF32201CF051FA641C36
:100D9000E4B2BC42F0D3A5F802903146DAF8000084
:100DA0001BF01AFF64201CF043FABDE8F04705A0D1
:100DB00029F01CBDBDE8F0871812002084860220AF
:100DC000A01E0020506F776572204D6F64656C2007
:100DD0005365742041646A7573740D0A0000000045
:100DE00010B5002808D0002402460723062120461B
:100DF00021F0E4FB012010BD002010BD10B500283B
:100E000008D00124024607230621204621F0D6FB04
:100E1000012010BD002010BD2DE9F041024600293F
:100E200001D0642A02D90020BDE8F0810B8840F28D
:100E3000EA56A3F5A060E93801D0B34214D148685E
:100E400090B10D7A521EC2EB021101EB81041149DF
:100E5000114F01EB84014FF4967207EB8404012DCE
:100E60000DD0022D13D101E00020DDE7B34202D105
:100E700025F03CFC0BE0214625F038FC07E0B342AE
:100E800002D125F0B9FB02E0214625F0B5FB012097
:100E9000CAE7000010980200E022020010B5002806
:100EA00007D0002212480023807910F0300F02D0C2
:100EB0001BE0002010BD104613F042FCA8B9012130
:100EC000104621F0DBFB0B49B72008702E2048703C
:100ED0000B7201204880084800681BF07DFE32201C
:100EE0001CF0A6F905A029F081FC012010BD00002E
:100EF000388602200C890220A01E0020506F7765E2
:100F0000722044697361626C65204D65737361671B
:100F1000652053656E640D0A0000000010B50028BE
:100F200006D001231348407B10F0300F02D01EE0A2
:100F3000002010BD184613F003FCC0B9012118466B
:100F400021F09CFB0C49B72008730A462E2002F1C1
:100F50000C0150730B7201204880084800681BF098
:100F60003BFE32201CF064F905A029F03FFC012073
:100F700010BD00003886022024890220A01E002017
:100F8000506F7765722044697361626C65204D65AE
:100F900073736167652053656E640D0A000000007D
:100FA0002DE9F04F89B0044601A801F0F5FD01A933
:100FB00005A82EC92EC02CB10025284613F0CEFB63
:100FC00020B180E1002009B0BDE8F08FBFA029F07A
:100FD0000DFC284613F0F6FC4FF00A08B0FBF8F4BD
:100FE000284613F053FD012834D00027BD4EB4F538
:100FF0007A7F7DD9B6F80B00A0424FD873214843C1
:1010000004EBC40101EB0411B146B0EB810F6FD2C8
:101010004FF47A701CF00CF9284613F0D3FCB0FBA7
:10102000F8F4B9F80B20732004EBC401504301EB32
:101030000411B0EB810F1AD22146ABA029F0D6FBE8
:101040001E21384621F0D0FB0221384621F022FB38
:101050000020B8E70F21284621F0C6FBAAA029F0FE
:10106000C5FB0221284621F015FB0020ABE77320C9
:1010700002EBC201604301EB0211B0EB810F52D2CF
:10108000214699A029F0B2FB0221384621F002FB4B
:101090001E21384621F0A8FB002094E7732100EBC5
:1010A000C002614302EB0010B1EB800F3BD24FF462
:1010B0007A701CF0BDF8284613F084FCB0FBF8F4FD
:1010C000B6F80B20732002EBC201604301EB021162
:1010D000B0EB810F0FD2214683A029F087FB0221BC
:1010E000384621F0D7FA1E21384621F07DFB00E07A
:1010F00019E0002067E7732102FB01F004EBC40153
:1011000001EB0411B0EB810F0DD2214676A029F03E
:101110006DFB1E21384621F067FB0221384621F085
:10112000B9FA00204FE7BDF81D00A0420DD22146BC
:1011300079A029F05BFB0221284621F0ABFA1E21A1
:10114000284621F051FB00203DE776A029F04EFB18
:101150004FF4FA701CF06CF8794833214180B6F8EE
:101160000B10002432390180764F4FF0B70A87F810
:1011700000A02D2179703C727860DFF8CCB139463F
:10118000DBF800001BF028FD0A201CF051F847F2A4
:1011900030521021204609F0BEFA05EB45006B499C
:1011A00000EBC50000EB010805EB850000EBC50076
:1011B00000EB0609B8F80010B9F80B00A0F1C8025E
:1011C000914203DAFA201CF033F827E0C83081425C
:1011D0005AD905EB450607F826A007EB86042E2012
:1011E00060702572012060802146DBF800001BF052
:1011F000F3FC4FF4FA601CF01BF807F826A02D2032
:10120000607025724E4800EB850060602146DBF877
:1012100000001BF0E1FC0A201CF00AF847F23052F3
:101220001021284609F06CFA1728C3D105EB4500B8
:1012300007F820A007EB80012E224A70002048808A
:101240000D72DBF800001BF0C7FC4FF47A701BF046
:10125000EFFF0221752205FB02F03D4A1044817127
:101260004170322128460CF023FFB8F8001039A055
:1012700029F0BCFA1721284621F0B6FA02212846A7
:1012800021F008FA00209EE6284601F005FA012820
:1012900005D1354800EB45000088A9F8060028462E
:1012A00009F0D6FC0121284621F092FA01230722F9
:1012B0000421284621F0DEF80121284621F0EAF930
:1012C0002AA029F093FA01207DE6000043686172AC
:1012D000676520526561647920436865636B0D0A18
:1012E0000000000002860220766F6C3A25642C42D2
:1012F00061747465727950726573656E74566F6C43
:101300003A25640D0A000000E794B5E6B1A0E58F28
:101310008DE68EA50D0A0000766F6C3A25640D0AE5
:10132000000000004368617267652052656164795E
:1013300020436865636B20446F6E650D0A000000F2
:10134000701200207C880220A01E00207C23042034
:10135000E48A0220313131312020766F6C203D202B
:1013600025640D0A00000000E2110020436861724C
:1013700067657220526561647920446F6E650D0A5D
:10138000000000002DE9F04F89B0044601A801F0EB
:1013900003FC01A905A82EC92EC02CB101242046AA
:1013A00013F0DCF920B17CE1002009B0BDE8F08F3A
:1013B000BDA029F01BFA204613F004FB0A26B0FB5F
:1013C000F6F5204613F062FB012831D0B5F57A7F9F
:1013D0007DD9BB48008BA8424ED87321484305EB0A
:1013E000C50101EB0511B0EB810F70D24FF47A709B
:1013F0001BF01EFF204613F0E5FAB0FBF6F5B048EF
:1014000005EBC50101EB0511028B73205043B0EBD6
:10141000810F1AD22946ABA029F0E8F91E212046F7
:1014200021F0E2F90221204621F034F90020BCE746
:101430000F21204621F0D8F9AAA029F0D7F90221DE
:10144000204621F027F90020AFE7732002EBC2010C
:10145000684301EB0211B0EB810F50D2294699A0ED
:1014600029F0C4F90221204621F014F91E2120465A
:1014700021F0BAF9002098E7732100EBC00269431C
:1014800002EB0010B1EB800F39D24FF47A701BF0F1
:10149000CFFE204613F096FAB0FBF6F5884973208C
:1014A00068430A8B02EBC20101EB0211B0EB810F22
:1014B0000ED2294683A029F099F90221204621F075
:1014C000E9F81E21204621F08FF900206DE716E093
:1014D000732005EBC501504301EB0511B0EB810F03
:1014E0000DD2294677A029F081F91E21204621F04E
:1014F0007BF90221204621F0CDF8002055E7BDF808
:101500001D00A8420DD229467AA029F06FF90221C8
:10151000204621F0BFF81E21204621F065F9002069
:1015200043E777A029F062F94FF4FA701BF080FED0
:101530007A493322081DCA806149098B32390180FA
:10154000774F4FF0B70A87F80CA03A462D2302F1E7
:101550000C0153730C724860DFF8C8B1DBF800006F
:101560001BF03AFB0A201BF063FE47F230521021B9
:10157000204609F0D0F804EB44006B4A00EBC400AD
:1015800000EB02084E4904EB840000EBC40000EBC2
:101590000109B8F80010B9F80B00A0F1C802914297
:1015A00003DAFA201BF044FE27E0C830814259D903
:1015B00004EB440607F826A007EB86052E2068708A
:1015C0002C72012068802946DBF800001BF004FB28
:1015D0004FF4FA601BF02CFE07F826A02D2068704F
:1015E0002C724E4800EB840068602946DBF800004E
:1015F0001BF0F2FA0A201BF01BFE47F230521021BA
:10160000204609F07DF81728C3D104EB440007F801
:1016100020A007EB80012E224A70002048800C7227
:10162000DBF800001BF0D8FA4FF47A701BF000FED4
:10163000022175203D4A604310448171417032217E
:1016400020460CF035FDB8F8001039A029F0CEF88E
:101650001721204621F0C8F80221204621F01AF86F
:101660000020A2E6204601F017F8012805D13548F0
:1016700000EB44000088A9F80600204609F0E8FACB
:101680000121204621F0A4F801230722042120464D
:1016900020F0F0FE0121204620F0FCFF2AA029F0D6
:1016A000A5F8012081E60000436861726765205259
:1016B0006561647920436865636B0D0A0000000072
:1016C00002860220766F6C3A25642C426174746540
:1016D000727950726573656E74566F6C3A25640D3D
:1016E0000A000000E794B5E6B1A0E58F8DE68EA56F
:1016F0000D0A0000766F6C3A25640D0A00000000A8
:10170000436861726765205265616479204368654A
:10171000636B20446F6E650D0A000000701200209C
:1017200094880220A01E00207C230420E48A02204A
:10173000313131312020766F6C203D2025640D0A37
:1017400000000000E21100204368617267657220AA
:10175000526561647920446F6E650D0A00000000D7
:1017600010B5002902D0B0F57A7F01D9002010BD54
:101770000A88A2F58063EC3B0DD14B685BB1401E3B
:1017800059225043097A00F57430903001290AD06B
:1017900002290DD101E0002010BD01465922184652
:1017A00024F0A4FF04E001465922184624F024FF47
:1017B000012010BD2DE9F04F8DB000283CD000F085
:1017C00051FF05900020069001A801F0E5F901A85D
:1017D00007AC0FC80FC4069812F0A8FFDFF8989264
:1017E0000027A9F1180A4FF0B70809F50876022872
:1017F00026D0A24A5088C0F57A6081B2ADF82E108A
:101800009F484088C0F57A6080B2814201D9ADF826
:101810002E001188ADF82C109A4D2980BDF82E00AD
:101820006880BDF82720904200D96A80964890F8D9
:101830003A20012A71D09BE000200DB0BDE8F08F66
:101840009049BDF8252008390888904222D9022005
:10185000707270702921384620F0C6FF89F8008028
:1018600002228AA138461AF099FB242089F8010047
:1018700089F80870494605981BF0AEF90A201BF05C
:10188000D7FC0021384620F0D1FD81A028F0AEFF22
:101890000020D2E74A88BDF82700824200D948805C
:1018A0008AF800802D208AF801008AF80870CAF8AA
:1018B00004107D48514600681BF08EF90A201BF089
:1018C000B7FC384612F058FF012823D0069809F0DB
:1018D000E7FB0121069820F07BFF0123072204216A
:1018E000069820F0C7FD30461C21FEF752FD01216D
:1018F000384620F0DBFE89F80080252089F80100B9
:1019000089F80870494605981BF066F90A201BF013
:101910008FFC72E0012090E7FFE790F83D0038B1BE
:10192000052805D00C2803D00E2801D009281FD186
:101930005E484FF4FA635E4A008898420CD21088E1
:1019400042F210725043B0FBF3F26C88A2420FD205
:10195000B0FBF3F068800BE0128842F210735A4338
:10196000B2FBF0F36C88A34202D2B2FBF0F06880C5
:10197000BDF82500814201D9288010E0BDF829403A
:10198000A1420CD2AB464BA028F030FFBBF80000C0
:10199000F0B3ABF8004021464AA028F027FF069894
:1019A00012F0EAFE012850D06A882988032306989D
:1019B000FFF7C4F9012307220421069820F05AFDFD
:1019C00030461C21FEF7E5FC0121384620F06EFE72
:1019D00089F80080252089F8010089F808704946B7
:1019E00005981BF0F9F80421384620F0CBFC0A20BA
:1019F0001BF01EFC37A028F0F9FE069809F050FBFA
:101A00000121069820F0E4FE069809F077FB00E03B
:101A10000EE01BF05BFC01463046C6F822102A306F
:101A200009F084FB0021384620F00CFD012004E77A
:101A3000069800F031FE012804D04FF4FA60ABF8AC
:101A40000000ACE7ABF80040A9E78AF800802D2041
:101A50008AF801008AF80870CAF804501248514602
:101A600000681BF0B9F814201BF0E2FB384609F0BF
:101A700017FB0120E1E60000C48802201C8602203A
:101A800002860220701200209A580220463400007C
:101A900044656D616E6420566F6C20546F6F204CEE
:101AA000617267650D0A0000A01E00207C230420DF
:101AB0008C0600204141414D494E4D494E2C257820
:101AC0000D0A00004141414D494E4D494E322C25F1
:101AD000780D0A0043686172676520426567696E28
:101AE0000D0A00002DE9F04F8BB0002844D000F023
:101AF000B9FD04900126684601F04EF89DE80F00FC
:101B000005AC0FC4304612F011FEDFF8D0924FF052
:101B1000B70AA9F10C0509F10C0405F27127022896
:101B20002ED0AF48B0F80700C0F57A6081B2ADF8AA
:101B30002A10AC48B0F80F00C0F57A6080B281423C
:101B400001D9ADF82A00A648B0F80510ADF8281064
:101B5000A54800F104088180BDF82A00A8F8020019
:101B6000BDF81F20904201D99F48C2809F4890F83D
:101B70003A20012A77D0AAE000200BB0BDE8F08F10
:101B80009948BDF81D200838011D8088904223D94E
:101B90009749022081F87E0078702921304620F094
:101BA00023FE89F80CA08D4924204873032291A1BB
:101BB00030461AF0F3F92672214604981BF00CF80F
:101BC0000A201BF035FB0021304620F02FFC8AA0B4
:101BD00028F00CFE0020D0E783480838C288BDF802
:101BE0001F00824202D9804A083AD0807B481838C8
:101BF00080F80CA0794A2D20183A50732E72696033
:101C00008348294600681AF0E7FF0A201BF010FB02
:101C1000304612F0B1FD012823D0304609F040FAD9
:101C20000121304620F0D4FD012307220421304653
:101C300020F020FC38461C21FEF7ABFB012130468A
:101C400020F034FD89F80CA06449252048732672E1
:101C5000214604981AF0C0FF0A201BF0E9FA7EE042
:101C600001E0012089E790F83D0038B1052805D052
:101C70000C2803D00E2801D0092828D165484FF43C
:101C8000FA62594BB0F80B00DFF88CC190420FD2CA
:101C9000BCF8000042F2107C00FB0CF0B0FBF2FC40
:101CA000B3F806B0DC4512D2B0FBF2F0D8800EE0FB
:101CB000BCF8002042F2107C02FB0CF2B2FBF0FCFC
:101CC000B3F806B0DC4502D2B2FBF0F0D880BDF824
:101CD0001D00814202D94449888011E0BDF821B03D
:101CE00059450DD24DA028F081FDB8F8000000281C
:101CF0004ED03D48A0F804B059464CA028F076FDDF
:101D0000304612F039FD012850D03748B8F800109D
:101D10000323C2883046FFF711F80123072204216C
:101D2000304620F0A7FB38461C21FEF732FB01218C
:101D3000304620F0BBFC89F80CA0284925204873C8
:101D40002672214604981AF047FF0421304620F0FD
:101D500019FB0A201BF06CFA38A028F047FD30462A
:101D600009F09EF90121304620F032FD304609F09D
:101D7000C5F91BF0ABFA1E49C1F8970007F12A001C
:101D800009F0D4F90021304620F05CFB0120F4E694
:101D9000304600F081FC012804D013494FF4FA606A
:101DA0008880ADE71048A0F804B0A9E70B481838C0
:101DB00080F80CA009492D20183948732E72C5F8F7
:101DC00004801348294600681AF006FF14201BF00F
:101DD0002FFA304609F064F90120CEE6F48802209B
:101DE0001C86022002860220701200209A580220CF
:101DF000E48A02204633300044656D616E642056EB
:101E00006F6C20546F6F204C617267650D0A000083
:101E1000A01E00207C2304208E0600204141414D5D
:101E2000494E4D494E2C25780D0A00004141414D47
:101E3000494E4D494E322C25780D0A004368617297
:101E4000676520426567696E0D0A00002DE9F0475D
:101E500080460F461546B8F1020F02D30020BDE8B8
:101E6000F08708EB480000EBC80127480E18083639
:101E70006FB165B10024DFF89490325D19F8041059
:101E8000914200D192B309F804207CBB01E000200C
:101E9000E5E7307810F0BE0F2FD03078C00612D5AD
:101EA000787820F0300010307870287840F0080002
:101EB000287017A028F09AFC01231A4604214046F6
:101EC00020F0D8FA05E0002301220421404620F04A
:101ED000D1FA307880060AD5287840F008002870BA
:101EE000012307220321404620F0C4FA05E0002325
:101EF00007220321404620F0BDFA641CE4B2022C04
:101F0000BBD30120ABE700007C2304200C1200208F
:101F100031313131370D0A0003480021C160416081
:101F20008160018201207047C85602201CB50B4B0E
:101F30000B4901EBC00001680091406801909DF8D9
:101F4000000020F00F00801D8DF800000822694677
:101F500018461FF085FC01201CBD0000A09F05183D
:101F600078A9042002460846012A09D0022A05D091
:101F7000032A07D0052A07D103F018BE05F020BBBD
:101F800005F0AEBB00F08AB9704710B500242046BA
:101F900008F042FE204608F06BFE204608F058FE8E
:101FA000641CE4B2022CF2D310BD000010B5322143
:101FB0000B481AF057FD0B4CA06070B10848322155
:101FC000C8301AF04FFDE06040B100200EF07EFBFB
:101FD00001200EF07BFB012010BDFEE7FEE70000B4
:101FE0005489022008120020F0B40F4A002806D0BD
:101FF000418821B1456815B10124002110E000207D
:10200000F0BC704743784BB112F83160B34205D150
:1020100053681BB128465168F0BC0847491CC9B237
:10202000A142EFD30020EBE780D70208F8B50446C1
:102030000D4612F0DFFB002100918CB1062D0FD36D
:1020400070B1A378E1786278267842EA0622A2F598
:10205000B446A53E14D1DA1CAA4203D00020F8BD34
:102060000020F8BD83290BD16179227941EA02254C
:10207000A17949060A0EE11D25B128460EF0D8FDCA
:102080000120F8BDE1188A78497842EA012302F07C
:102090007F010091007960F3DF119942F0D1684629
:1020A0000EF0B8FDECE7000010B500280BD01C21A5
:1020B0000648FEF76EF9002008F0DAFD04A028F0CB
:1020C00095FB012010BD002010BD0000E48A022015
:1020D000456C656374726F6E6963204C6F636B202F
:1020E0004C6F636B65640D0A0000000010B500289A
:1020F0000BD01C210648FEF74CF9012008F0B8FD72
:1021000004A028F073FB012010BD002010BD0000CA
:10211000598B0220456C656374726F6E6963204C45
:102120006F636B204C6F636B65640D0A00000000E9
:1021300010B500280AD0002008F06EFD002008F03D
:1021400097FD03A028F052FB012010BD002010BD18
:10215000456C656374726F6E6963204C6F636B20AE
:10216000556E6C6F636B65640D0A000010B5002836
:102170000AD0012008F050FD012008F079FD03A0ED
:1021800028F034FB012010BD002010BD456C6563B4
:1021900074726F6E6963204C6F636B20556E6C6F49
:1021A000636B65640D0A00002DE9F0410446002CC4
:1021B0002ED020884FF41675A0F5806240F6A666F2
:1021C000063A0FD0A0F58062CE3A34D0A0F57F4217
:1021D000FF3A57D01FF01AFA0146002952DA0020C0
:1021E000BDE8F081012080F31088207A284F022872
:1021F00010D02A46274938462AF09EFA6288254997
:102200006068FEF7ADF8002080F310880120E7E752
:102210000020E5E717F030F962881E486168FEF794
:102220009FF82A461B4938462BF005F83146042012
:1022300017F006F9E7E7012080F31088207A164F9F
:1022400002280ED02A46134938462AF075FA6288C9
:1022500010496068FEF784F8002080F310880120A0
:10226000BEE717F009F962880A486168FEF778F856
:102270002A46084938462AF0DEFF3146042017F086
:10228000DFF8E9E788B22146BDE8F0411CF0C8BF9D
:1022900000000E087470022000000C080120704736
:1022A00070B5134E1BF012F80446002505EB4500EF
:1022B00036F82010B1B106EB80004268A24208D87F
:1022C000A21A8A420ED3816861B144600020884717
:1022D00008E0D24322448A4204D3816811B14460A9
:1022E000002088476D1CEDB2022DDFD3012070BDA8
:1022F000381F002070B50546022D1AD2C9B1681CDE
:10230000C0B220F0F5FA00210B480126006800EB6E
:10231000850406FA01F22369134201D09343236135
:10232000491CC9B20829F4D32846FFF7FFFD012054
:1023300070BD002070BD0000FC1E002001484069F7
:10234000704700007812002010B5022801D3002049
:1023500010BD6B2148430449102201445331034806
:10236000FDF7FEFF014810BD141D0320C821032006
:10237000022801D3002070476B21484302490844DA
:10238000D0F8090070470000141D0320022801D373
:10239000002070470149085C704700007C1600204F
:1023A00010B5022801D3002010BD064900EB8000C3
:1023B00001EBC001183110220348FDF7D1FF02489C
:1023C00010BD0000C93C0320982A0320022801D335
:1023D0000020704700207047022801D3002070477A
:1023E0000149085C704700003B1700200048704717
:1023F0005E5B02200A2801D9002070470149084489
:10240000C07A70475CF00320002901D0022801D374
:1024100000207047034A02EB40000088088001203A
:1024200070470000E211002000487047CF5D022095
:10243000164991F83D1000291FD005291DD00C29FF
:102440001BD00E2919D0092917D0082917D0022925
:1024500017D00B2917D00D2915D00F2913D001291A
:1024600011D00A290FD006290DD007290BD0032936
:1024700009D0042907D000F04BB900F049B9FFF7A3
:1024800063BFFFF78DBF00F0E7BB00009A58022042
:10249000022801D30020704700EB4001C1EBC010BF
:1024A000024901EB8000401C70470000CC3502203F
:1024B0000EB540F2E650ADF8000040F6B830ADF889
:1024C00002000848019001208DF808006846FFF7D7
:1024D0006BFE08B103480EBD03A028F087F9002069
:1024E0000EBD0000B4390220526561642063617240
:1024F00064776C20206572720000000010B588B00F
:102500000446002C17D0684600F046FBDDE90201C6
:10251000CDE90601BDF819002080BDF81D006080DE
:10252000BDF81B00C0F57A60A0804FF47A60E080AF
:10253000012008B010BD0020FBE770B505460C4631
:10254000284612F027F974B1B0F83412218080695E
:102550004FF47A71B0FBF1F06080284600F09CF8EF
:10256000012802D003E0002070BD08206060012037
:1025700070BD0000014800787047000088190020F5
:1025800070B505460C46284612F004F90CB1022D30
:1025900001D3002070BD05EB450101EBC5020F49D9
:1025A00011440A8822804988C1F57A616180B0F8B7
:1025B0003402A080284600F06FF8012809D128468F
:1025C00012F0BEF838B10020A071A07940F0FC00F4
:1025D000A071012070BD0120A071F6E77C230420CA
:1025E000002901D0022801D30020704775225043F2
:1025F000024A10440069086001207047E48A022002
:10260000022801D300207047014901EB00107047F8
:10261000764D02200148806870470000601000205D
:10262000022801D30020704759214843014908443A
:102630007047000040600220022801D3002070474C
:10264000C0EBC000024900EB4000084470470000A6
:102650004C4D0220004870479A58022000487047AD
:10266000985602200148806F7047000080060020C5
:10267000014800787047000080060020022801D33E
:10268000042070470349C0EBC000085C00F00F0055
:1026900070470000F68B0220022801D3012070470A
:1026A0000149085C70470000941000200048704702
:1026B000C0A90420F0B502460020022A00D3F0BDD4
:1026C00000210C4B03EB420513F812400A4A641E2A
:1026D000012693688C4208DC6A78521E8A4204DB29
:1026E00006FA01F2134200D01043491CC9B208296E
:1026F000F0D3F0BDD01E00205CA40420034890F865
:102700002000022800D90220704700009A580220B9
:1027100010B5022801D3002010BD0549C0EB801080
:102720000144253110220348FDF71AFE014810BD6F
:102730000EF9032094F00320022801D300207047F3
:102740000249C0EB80100844006870470EF903206E
:10275000022801D3002070470149085C704700003F
:10276000BA19002070B50C46022801D3002070BDB4
:1027700000EB40012D4800EB810595F82100612810
:102780004AD0303815F8221F00EB80006FF02F067A
:1027900006EB40000844C0B209F079F9607168782E
:1027A000A978303800EB800006EB40000844C0B246
:1027B00009F06DF92071E8782979303800EB800054
:1027C00006EB40000844C0B209F061F9E070687996
:1027D000A979303800EB800006EB40000844C0B215
:1027E00009F055F9A070E879297A303800EB8000BB
:1027F00006EB40000844C0B209F049F96070687AFD
:10280000A97A303800EB800006EB40000844C0B2E3
:1028100009F03DF9207006E0AA2020706070A070D9
:10282000E07020716071012070BD00009A58022094
:10283000014901EB00107047736C02200A2801D98E
:102840000020704701490844407870475CF003203D
:102850000146012809D0022905D0032907D00529FE
:1028600007D100F0BBB900F0F3B900F00DBAFFF7E3
:102870001DBF704700487047D01E0020164991F8D0
:102880003D1000291FD005291DD00C291BD00E2971
:1028900019D0092917D0082917D0022917D00B29D8
:1028A00017D00D2915D00F2913D0012911D00A29CD
:1028B0000FD006290DD007290BD0032909D00429F0
:1028C00007D0FFF739BFFFF737BFFFF751BDFFF75D
:1028D0007DBD00F0C5B900009A5802202DE9FF41E6
:1028E000002603964FF4BD67ADF800700124ADF8E3
:1028F000024003AD01958DF808406846FFF754FC8F
:102900009DF80C0064280CD90396ADF80070ADF862
:102910000240019502208DF808006846FFF744FC4C
:10292000002004B0BDE8F08110B5FFF763FD012879
:1029300001D0002010BD012010BD000000487047EC
:102940005CA404207CB50E480E4D012200684FF0B7
:1029500000048168A8788240114208D00A4941EAFF
:10296000002000940194082269461EF079FFA8789F
:10297000401CC0B2A870082800D3AC7001207CBDF8
:10298000FC1E0020501F0020F000860200281CD0F2
:102990000A001AD000220079904218D148780B78AA
:1029A00040EA0323C2EBC20000EB40020B48104494
:1029B0000381CA788B7842EA032242814A790979F5
:1029C00042EA012181810120704700207047521C9A
:1029D000D2B2082AE0D300207047000068AA042081
:1029E0007CB5194D1949687841EA0020002400940B
:1029F0000194082269461EF033FF6978144BC1EB3D
:102A0000C10000EB40001844027D052A02D30522D4
:102A1000027501E0521C0275007D801E032805D35B
:102A2000491CC8B26870082800D36C706878C0EB85
:102A3000C00000EB40001844007D022802D30528A6
:102A400000D000BF01207CBD501F0020F000840298
:102A500068AA0420002819D00A0017D000220079A3
:102A6000904215D1C2EBC20000EB40020B4800239C
:102A7000104403758A7882730A79C2734A79827422
:102A80008A794274C9790174012070470020704727
:102A9000521CD2B2082AE3D30020704768AA04204F
:102AA0007CB50E480E4D012200684FF0000481688D
:102AB00028788240114208D00A4941EA0020009457
:102AC0000194082269461EF0CBFE2878401CC0B253
:102AD0002870082800D32C7001207CBDFC1E00202B
:102AE000501F0020F000830270B5002847D00A0074
:102AF00045D000240079A04243D1C8780A788B7869
:102B000040EA02604A78120442EA0322104300EECF
:102B1000100AF2EE040AC4EBC40220EE200A02EB13
:102B200042031B4ABCEEC00A1A4410EE100A1060A1
:102B3000CB790D7943EA05634D7989792D0445EA0E
:102B400001210B4300EE103A20EE200ABCEEC00A31
:102B500010EE101A51600F490122A2400968C9689D
:102B600011420AD0B0F5FA7F07D9012120461BF0A7
:102B7000B3F8214600201FF05BFF012070BD00204C
:102B800070BD641CE4B2082CB5D3002070BD0000F9
:102B900068AA0420FC1E002010220149FDF7E0BBBA
:102BA000E68B0220014800687047000044100020B6
:102BB00000487047ED580220014800687047000047
:102BC000C8560220022801D3002070470249C0EBFA
:102BD000C00011F8200070470C8D0220004870479B
:102BE000D0A804200148407D704700005CF003201D
:102BF00001480078704700005CF0032001488068BD
:102C0000704700006C160020022801D30020704796
:102C10000149085C704700003D170020022801D3DD
:102C2000002070475921484301490844407E7047BD
:102C300040600220022801D3042070470349C0EB02
:102C4000C000085C00F00F0070470000F68B022007
:102C50000048704768AA042000BF002070470000A9
:102C6000022801D300207047014951F82000704725
:102C7000A01A0020022801D3002070470149085CF7
:102C800070470000841A002000487047F0AB042011
:102C9000022801D33B20704775214843024908446C
:102CA00090F8740070470000E48A0220002807D0E2
:102CB00031B100792038C0B2082803D30020704712
:102CC00000207047C0EBC000034A00EB40001044F6
:102CD0000021017501207047C0A904202DE9F04FA3
:102CE0002DED068B91B04FF0000A002828D0002669
:102CF0000020FB4C11F066FE42F210714FF0020909
:102D0000884233D384F8039084F800901D21304624
:102D10001FF06AFD312130460BF0CAF9F1A027F00F
:102D200065FD002130461FF06BFB0322F6A1304603
:102D300019F034F9002011B0BDEC068BBDE8F08F1E
:102D40000E2100201FF050FD312100200BF0B0F9C2
:102D5000002108461FF054FBECA027F047FD03229A
:102D6000F2A1002019F01AF90020E4E7304611F032
:102D70008DFE01282DD0EEA027F038FDF34F4FF443
:102D8000FA60388033207880F149B7200025087038
:102D90002D2048700D724F60EE48006819F01CFF3E
:102DA00064201AF045FAEC4805804FF0C80847F255
:102DB00030521021284607F0AEFCE74906EB4600EA
:102DC00000EBC60000EB010B06EB460507EB8607A0
:102DD00045E084F8039084F800900F2130461FF0FE
:102DE00003FD312130460BF063F9002130461FF01E
:102DF00007FB0322D9A1304619F0D0F8D8A027F05C
:102E0000F5FC002097E747F230521021304607F0DA
:102E100077FC172860D008F101081FFA88F8B8F18C
:102E2000CD0F01D94FF0C80808EB88004FF6FF71AD
:102E300001EA4000388033207880C548B72100F887
:102E4000251000EB85012D224A700E724F60C1489B
:102E5000006819F0C1FE4FF4FA701AF0E9F93888E9
:102E6000BBF80010A0F596729142CCDD00F596708B
:102E70008142C8D2BAF1170F51D0304611F0A2FDED
:102E800042F2107188423AD384F8029084F800909C
:102E90000322B7A1304619F081F8112130461FF006
:102EA000A3FCB4A027F0A2FCA948B72100F8251084
:102EB00000EB85012E224A70002048800E72A54842
:102EC000006819F089FE002130461FF099FA32207F
:102ED0001AF0AEF900202EE74FF0170A84F802909E
:102EE00084F80090172130461FF07EFC0322A5A134
:102EF000304619F053F8A4A027F078FCBAE7304622
:102F000008F0CEF8012130461FF062FC01230722B1
:102F1000042130461FF0AEFA9FA027F067FCBAF1FB
:102F2000170F7CD009A93046FFF76EFA01A8FFF70A
:102F300033FE01A80FC8CDE90723CDE90501BDF88F
:102F400024004FF4FA61884201D8398008E0BDF8C6
:102F50001D10884201D8388002E041F28830388064
:102F6000332078807A48B72100F8251000EB8501DE
:102F70002D224A700E724F607648006819F02CFEC0
:102F800064201AF055F97A88398886A027F02EFC3B
:102F90000020ABF8000044F620621021304607F014
:102FA000BAFB4FF4FA780AE044F62062102130466A
:102FB00007F0A6FB17287CD040461AF039F938886C
:102FC000BBF80010A0F596729142EDDD00F5967009
:102FD0008142E9D2BAF1170FA3D0304611F0F2FCCA
:102FE0004FF00A08B0FBF8F00B90304611F084FC6B
:102FF000B0FBF8FB304608F077F84FF47A701AF01F
:1030000017F9304611F0DEFCB0FBF8FA304611F04B
:1030100073FCB0FBF8F7304608F05CF800E09FE185
:103020004FF47A701AF004F9304611F0CBFCB0FB83
:10303000F8F00A90304611F05FFCB0FBF8F830462B
:1030400007F02AFE304607F01DFE0A98CDE9010878
:1030500053465A4600975F480B9927F0C7FB0B98D9
:10306000642148430BEBCB01C1EB8B11B0EB810F1B
:1030700006D8CBEB0B1101EB4101B0EB810F2ED247
:1030800084F8029084F80090032253A1304618F08F
:1030900085FF0E2130461FF0A7FB012304221946AD
:1030A00030461FF0E7F900E003E04CA027F09EFB5C
:1030B00056E14FF0170A84F8029084F8009003223A
:1030C0004DA1304618F06AFF172130461FF08CFBE7
:1030D0002DA027F08BFB494827F088FB7AE78FE08B
:1030E000E58A02204B312F4B3220426174746572A5
:1030F00020566F6C204C61726765207468616E2089
:103100003330560D0A00000046313800494E534F07
:103110004C5554494F4E45525220706172616D6555
:1031200074657231206572720D0A000046313700F5
:10313000496E73756C6174696F6E20436865636B6B
:1031400020426567696E0D0A0000000070120020C1
:103150004C880220A01E00207C2304204631390028
:10316000E794B5E6B1A0E58F8DE68EA50D0A0000C7
:103170004632310044434F555420455252310D0AD6
:1031800000000000463230003230532054494D4593
:103190004F55540D0A0000006B314B32204F7065C3
:1031A0006E0D0A00424D5344656D616E64496E6652
:1031B0006F2E566F6C203D2025642C424D53446584
:1031C0006D616E64496E666F2E437572203D2025D9
:1031D000640D0A0008E7020846323300E7BB9DE7AA
:1031E000BC98E6A380E6B58BE59B9EE8B7AFE69575
:1031F00085E99A9C5C720A004632320058E7020860
:10320000642F03D3AAF1C800874216D984F802902C
:1032100084F8009003228CA1304618F0BFFE0E21E6
:1032200030461FF0E1FA01230422194630461FF010
:1032300021F986A027F0DAFA92E00A98A0EB080BB1
:103240000BFB07FB5846FDF7AAFACDE90F1041EC3E
:10325000180B4046FDF7A3FACDE90D1041EC190B10
:103260003846FDF79CFA9FED821B53EC112BFDF7BE
:10327000B5F953EC192BFDF7B1F941EC190BAAEB99
:1032800007000C9000FB08F0FDF789FA53EC192BAE
:10329000FDF7FDF853EC182BFDF79AF941EC180BEC
:1032A000A7EB0A0000FB08B0FDF779FA8A4607464B
:1032B00053EC182BFDF704FA9FED6FAB53EC1A2B70
:1032C000FDF78CF9FDF778FA8046DDE90F1041EC47
:1032D000180BDDE90D1041EC190B0C98FDF75FFAA6
:1032E0009FED671B53EC112BFDF778F953EC192B6D
:1032F000FDF774F953EC182BFDF76AF941EC110B4B
:103300004AEC107B53EC112B51EC100BFDF7D8F964
:1033100053EC1A2BFDF762F9FDF74EFA07463A46D1
:10332000414659A027F062FA4DF2D861884501D391
:103330008F4215D284F8029084F80090032258A19D
:10334000304618F02BFE0E2130461FF04DFA0123B7
:103350000422194630461FF08DF852A027F046FA95
:103360005649B72001F8250001EB85012E20487051
:1033700001274F800E725248006819F02DFC322050
:1033800019F056FF3046FFF787F960B9304607F06D
:103390005FFC002130461FF01BFA002307220421A6
:1033A00030461FF067F83046FFF776F901280DD058
:1033B0004FF47A7019F03CFF002130461FF020F8DE
:1033C000207802283ED027700120B4E441F28838EA
:1033D00042461021304607F09EF942F2107509E08E
:1033E00042461021304607F08BF9172815D064208B
:1033F00019F01EFF304611F0E5FAA842F0D230462F
:1034000007F026FC002130461FF0E2F900230722D6
:10341000042130461FF02EF8CEE784F8049084F89B
:103420000090032227A1304618F0B8FD1521304640
:103430001FF0DAF9302130460AF03AFE22A027F0D8
:10344000D5F9DCE7002076E446323400E6ADA3E8A7
:10345000B49FE6AF8DE7BABFE5AFB9E59CB0E99898
:10346000BBE580BCE5BE88E5B08F5C720A00000059
:103470005566035633F923400000000000F326414F
:103480005566035633F925404A59205270203D2095
:1034900025642C526E203D2025640D0A000000009A
:1034A00046323500E7BB9DE7BC98E6A380E6B58BC6
:1034B000E69585E99A9CE380800D0A004C880220FD
:1034C000A01E002046323600313131330D0A000093
:1034D0002DE9F04F2DED068B91B04FF0000A00283A
:1034E00029D00126FE4C304611F06CFA014642F21A
:1034F00010704FF00209814233D384F8039084F8AE
:1035000000901D2130461FF06FF9312130460AF03E
:10351000CFFDF4A027F06AF9002130461EF070FFBD
:103520000222F9A1304618F039FD002011B0BDEC9F
:10353000068BBDE8F08F0E2101201FF055F93121D7
:1035400001200AF0B5FD002101201EF059FFEFA077
:1035500027F04CF90222F5A1012018F01FFD0020F0
:10356000E4E7304611F092FA012835D0F0A027F0B8
:103570003DF9F6494FF4FA62081D8A8033214180F3
:10358000F34FB7253D733A462D2302F10C015373D7
:103590000E724860DFF8BCB3DBF8000019F01CFBCA
:1035A000642019F045FEEC490020A1F80B004FF013
:1035B000C80847F230521021304607F0ACF8E34912
:1035C000E54A06EB460000EBC60000EB020B06EBFB
:1035D000460501EB860745E084F8039084F80090E7
:1035E0000F2130461FF000F9312130460AF060FD0E
:1035F000002130461EF004FFD8A027F0F7F8022281
:10360000DAA1304618F0CAFC00208FE747F23052AA
:103610001021304607F074F8172860D008F101082F
:103620001FFA88F8B8F1CD0F01D94FF0C80808EBA0
:1036300088004FF6FF7101EA40003880332078801F
:10364000C348B72100F8251000EB85012D224A70F0
:103650000E724F60BF48006819F0BEFA4FF4FA705E
:1036600019F0E6FD3888BBF80010A0F5967291427B
:10367000CCDD00F596708142C8D2BAF1170F51D057
:10368000304611F09FF942F2107188423AD384F823
:10369000029084F80090112130461FF0A5F8B4A0E4
:1036A00027F0A4F8AA49B72001F8250001EB85010D
:1036B0002E204870002048800E72A648006819F03D
:1036C0008BFA002130461EF09BFE0322ACA130464F
:1036D00018F064FC322019F0ABFD002026E74FF013
:1036E000170A84F8029084F80090172130461FF0E2
:1036F0007BF80222A3A1304618F050FCA2A027F0CC
:1037000075F8BAE7304607F0CBFC012130461FF0D0
:103710005FF801230722042130461EF0ABFE9EA075
:1037200027F064F8BAF1170F7ED009A93046FEF7EA
:103730006BFE01A8FFF730FA01A80FC8CDE90723F7
:10374000CDE90501BDF824004FF4FA61884201D8A3
:10375000398008E0BDF81D10884201D8388002E0A9
:1037600041F288303880332078807948B72100F8DA
:10377000251000EB85012D224A700E724F607548AE
:10378000006819F029FA642019F052FD7A88398806
:1037900084A027F02BF80020ABF8000044F620624C
:1037A0001021304606F0B7FF4FF4FA780AE044F6ED
:1037B00020621021304606F0A3FF17287BD0404638
:1037C00019F036FD3888BBF80010A0F596729142CA
:1037D000EDDD00F596708142E9D2BAF1170FA3D062
:1037E000304611F0EFF84FF00A08B0FBF8F00B90FC
:1037F000304611F081F8B0FBF8FB304607F074FC5E
:103800004FF47A7019F014FD304611F0DBF8B0FB7C
:10381000F8FA304611F070F8B0FBF8F7304607F0D0
:1038200059FC4FF47A7000E09EE119F001FD30463A
:1038300011F0C8F8B0FBF8F00A90304611F05CF8CF
:10384000B0FBF8F8304607F027FA304607F01AFACE
:103850000A98CDE9010853465A4600975D480B99EE
:1038600026F0C4FF0B98642148430BEBCB01C1EB5E
:103870008B11B0EB810F06D8CBEB0B1101EB4101A3
:10388000B0EB810F2AD284F8029084F800900322D2
:1038900051A1304618F082FB0E2130461EF0A4FFE5
:1038A00001230422194630461EF0E4FD4BA026F009
:1038B0009DFF59E1FFE74FF0170A84F8029084F862
:1038C0000090172130461EF08FFF2FA026F08EFFAC
:1038D000494826F08BFF032248A191E094E00000C4
:1038E0005A8B02204B312F4B322042617474657227
:1038F00020566F6C204C61726765207468616E2081
:103900003330560D0A00000046370000494E534F31
:103910004C5554494F4E45525220706172616D654D
:1039200074657231206572720D0A0000463600001F
:10393000496E73756C6174696F6E20436865636B63
:1039400020426567696E0D0A0000000070120020B9
:1039500064880220A01E00207C230420E794B5E6A2
:10396000B1A0E58F8DE68EA50D0A00004638000057
:1039700044434F555420455252310D0A0000000077
:1039800046313000463900003230532054494D450D
:103990004F55540D0A0000006B314B32204F7065BB
:1039A0006E0D0A00424D5344656D616E64496E664A
:1039B0006F2E566F6C203D2025642C424D5344657C
:1039C0006D616E64496E666F2E437572203D2025D1
:1039D000640D0A0008E7020846313200E7BB9DE7A4
:1039E000BC98E6A380E6B58BE59B9EE8B7AFE6956D
:1039F00085E99A9C5C720A0058E70208463131005A
:103A0000304618F0CBFAE8E6642F03D3AAF1C800D9
:103A1000874216D984F8029084F8009003228CA182
:103A2000304618F0BBFA0E2130461EF0DDFE0123B1
:103A30000422194630461EF01DFD86A026F0D6FE53
:103A400092E00A98A0EB080B0BFB07FB5846FCF72B
:103A5000A6FECDE90F1041EC180B4046FCF79FFE87
:103A6000CDE90D1041EC190B3846FCF798FE9FED9F
:103A7000821B53EC112BFCF7B1FD53EC192BFCF717
:103A8000ADFD41EC190BAAEB07000C9000FB08F010
:103A9000FCF785FE53EC192BFCF7F9FC53EC182BC3
:103AA000FCF796FD41EC180BA7EB0A0000FB08B0F1
:103AB000FCF775FE8A46074653EC182BFCF700FE10
:103AC0009FED6FAB53EC1A2BFCF788FDFCF774FEEF
:103AD0008046DDE90F1041EC180BDDE90D1041ECDB
:103AE000190B0C98FCF75BFE9FED671B53EC112B39
:103AF000FCF774FD53EC192BFCF770FD53EC182BFD
:103B0000FCF766FD41EC110B4AEC107B53EC112BDA
:103B100051EC100BFCF7D4FD53EC1A2BFCF75EFDB7
:103B2000FCF74AFE07463A46414659A026F05EFE9B
:103B30004DF2D861884501D38F4215D284F80290A6
:103B400084F80090032258A1304618F027FA0E217D
:103B500030461EF049FE01230422194630461EF06D
:103B600089FC52A026F042FE5648B72100F82510E5
:103B700000EB85012E224A7001274F800E725248B9
:103B8000006819F029F8322019F052FB3046FEF790
:103B900083FD60B9304607F05BF8002130461EF027
:103BA00017FE00230722042130461EF063FC304636
:103BB000FEF772FD01280DD04FF47A7019F038FB32
:103BC000002130461EF01CFC207802283ED02770D1
:103BD0000120ABE441F2883842461021304606F01D
:103BE0009AFD42F2107509E042461021304606F077
:103BF00087FD172815D0642019F01AFB304610F005
:103C0000E1FEA842F0D2304607F022F8002130460B
:103C10001EF0DEFD00230722042130461EF02AFCA0
:103C2000CEE784F8049084F80090152130461EF009
:103C3000DBFD302130460AF03BFA032223A1304657
:103C400018F0ACF922A026F0D1FDDCE700206DE4ED
:103C500046313300E6ADA3E8B49FE6AF8DE7BABFC7
:103C6000E5AFB9E59CB0E998BBE580BCE5BE88E569
:103C7000B08F5C720A0000005566035633F923408A
:103C80000000000000F326415566035633F9254035
:103C90004A59205270203D2025642C526E203D2030
:103CA00025640D0A0000000046313400E7BB9DE7A3
:103CB000BC98E6A380E6B58BE69585E99A9CE380FF
:103CC000800D0A0064880220A01E002046313500C5
:103CD000313131330D0A00002DE9F04F8BB004462D
:103CE00000200990022C7DD27520FC4F04FB00F6C9
:103CF000F5191035204610F0F3FD012810D00023EF
:103D00000522042120461EF0B5FB022007F0A4F98D
:103D100000286DD0204610F0CFFC002847D142E0AB
:103D2000204610F0C9FC18B9204610F0D3FC98B317
:103D3000204610F0FBFC012804D0204610F0F6FCD1
:103D4000032829D1204606F083FF002120461EF0DB
:103D50003FFD00230722042120461EF08BFB204656
:103D600006F05AFFA87820F00C00001DA870B85D7E
:103D700040F00200B8550322D9A1204618F00EF9F0
:103D80000521204602F0BCFB9DF8240040F0040011
:103D90000990D4A026F02AFD012305220421204603
:103DA0001EF068FBB1E7204610F094FCD8B1A8786B
:103DB00020F00300401CA870B85D40F00200B85528
:103DC0000222CAA1204618F0E9F8292120461EF057
:103DD0000BFD0921204602F093FB9DF8240040F0E2
:103DE000040001E0F8E303E00990C1A026F0FEFC26
:103DF000204610F043FD012809D000230422194673
:103E000020461EF037FBBC48806868B352E020466D
:103E100010F052FC18B9204610F05CFCE8B1A8780C
:103E200020F00300401CA870B85D40F00200B855B7
:103E30000322B2A1204618F0B1F8032120461EF05B
:103E4000D3FC0821204602F05BFB9DF8240040F0E3
:103E500004000990A6A026F0C9FC01230422002139
:103E600020461EF007FBCEE7204610F025FC18B9CF
:103E7000204610F02FFCE8B1A87820F00300401C89
:103E8000A870B85D40F00200B85503229CA12046FE
:103E900018F084F8162120461EF0A6FC3321204697
:103EA00002F02EFB9DF8240040F00400099090A041
:103EB00026F09CFC204610F0CDFC012811D00122F8
:103EC0000023114620461EF0D5FA012306220421C4
:103ED00020461EF0CFFA204610F002FD01283ED009
:103EE00073E0204610F048FC012831D1204610F044
:103EF000F1FB68BB204610F019FC012804D02046D5
:103F000010F014FC032823D1A87820F00C00001D29
:103F1000A870B85D40F00200B855032279A1204690
:103F200018F03CF80D2120461EF05EFC17212046BB
:103F300002F0E6FA9DF8240040F00400099072A017
:103F400026F054FC01231A46194620461EF092FA28
:103F500000230622042120461EF08CFABBE7002332
:103F60000422012120461EF085FA002305220121AA
:103F700020461EF07FFA02220023114620461EF042
:103F800079FA00230222032120461EF073FA00234F
:103F90000522032120461EF06DFA0023062203218C
:103FA00020461EF067FA00230722032120461EF058
:103FB00061FA00230722022120461EF05BFA00234B
:103FC0000522022120461EF055FA01A8FEF7E4FD65
:103FD00001A80FC8CDE90723CDE9050104EB440092
:103FE00000EBC4014A4801EB000ABAF8008041F630
:103FF000B050804531D2BDF81800C83040452CD2B1
:10400000204610F059FB18B9204610F063FBF0B1C0
:10401000E87820F00C00001DE870B85D40F0020068
:10402000B85503223BA1204617F0B8FF20212046B7
:1040300002F066FA182120461EF0D6FB9DF82400F7
:1040400040F004000990414633A026F0CFFB012345
:104050000722032120461EF00DFA04EB840000EB3A
:10406000C4012F4801EB0009B9F8060000F596716C
:1040700041455FD240F6B83188425BD3204610F00C
:104080001BFB18B9204610F025FB00B3E87820F0A0
:104090000C00001DE870B85D40F00200B855032226
:1040A00020A1204617F07AFF2021204602F028FAAE
:1040B000182120461EF098FB9DF8240040F00400D3
:1040C0000990B9F80620414617A026F08FFB01237E
:1040D0000722032120461EF0CDF935E0E48A0220B4
:1040E0004531380035310D0A000000004538000028
:1040F00035320D0A000000005CA404204531370071
:10410000453636004531360035330D0A00000000D3
:104110007C2304204531350035352C25780D0A00E7
:10412000028602204531340035362C25782C25783E
:104130000D0A0000BDF81800404505D300230722F2
:10414000032120461EF096F910F0EEFB8146BDF8E3
:10415000140041F2707B48452ED2D9452CD220461E
:1041600010F0AAFA18B9204610F0B4FAE8B1E878CD
:1041700020F00300401CE870B85D40F00200B85524
:104180000322FDA1204617F009FF1421204602F06A
:10419000B7F90A2120461EF027FB9DF8240040F0C5
:1041A00004000990F5A026F021FB0123032202213F
:1041B00020461EF05FF905E000230322022120467D
:1041C0001EF058F9BDF8160048452ED9D9452CD215
:1041D000204610F071FA18B9204610F07BFAE8B1C9
:1041E000E87820F00300401CE870B85D40F0020061
:1041F000B8550322E3A1204617F0D0FE1421204633
:1042000002F07EF90A2120461EF0EEFA9DF8240005
:1042100040F004000990D9A026F0E8FA0123042216
:10422000022120461EF026F905E000230422022187
:1042300020461EF01FF9D449C4EBC400085C0006F8
:1042400057D5204610F072FA012804D0204610F00D
:104250006DFA03284DD1002010F02EFA18B9002075
:1042600010F038FAE8B1E87820F00300401CE8705C
:10427000387840F0020038700322C4A1002017F003
:104280008DFE1921002002F03BF9112100201EF0C3
:10429000ABFA9DF8240040F004000990BCA026F081
:1042A000A5FA012010F008FA18B9012010F012FA4E
:1042B000F8B1E87820F00300401CE87097F875002A
:1042C00040F0020087F875000322B3A1012017F027
:1042D00065FE1921012002F013F9112101201EF0C1
:1042E00083FA9DF8240040F004000990A8A026F06D
:1042F0007DFA18F0EBFFDFF8A4B24BF8240020465B
:1043000010F014FA014640F2452204FB02F0A44AE0
:10431000ABF1080902EB400209F11003012915D0A5
:10432000204610F003FA032810D05BF8240043F86D
:104330002400906949F8240000200A900AAA29461E
:104340002046FDF783FD01284ED05FE0204610F0A7
:10435000B3F918B9204610F0BDF9A8B359F82400F4
:104360009169884231D15BF8240053F824209042AF
:1043700001D3821A01E0D2430244DFF828C2624529
:10438000DAD343F8240049F82410E87820F0030039
:10439000401CE870B85D40F00200B855032282A1CD
:1043A000204617F0FBFD3221204602F0A9F8292112
:1043B00020461EF019FA9DF8240040F004000990F0
:1043C0007AA026F013FAB7E706E05BF8240043F87A
:1043D000240049F82410AFE75BF8240043F82400D8
:1043E000906949F82400A7E79DF82800042807D120
:1043F000032271A1204617F0D1FD70A026F0F6F936
:104400009DF824009DF8281008430990204610F0DC
:10441000B3F9DFF888B104EB8409ABF1280B01286C
:1044200009D1204610F082F9012826D0204610F04C
:104430007DF9032821D018F049FF4BF82400574993
:10444000203941F8240018F041FF5449183941F847
:104450002400083141F82400204610F0A5FA002875
:1044600070D001230722042120461EF003F855488E
:1044700090F8450000287DD007E118F027FF4BF8A1
:1044800024005149BAF8022009EB010B41F2040360
:10449000BBF80210591A8A423AD94049203951F8DA
:1044A0002410884201D3401A01E0C943084443F66E
:1044B0009821884230D3204610F0FEF818B92046E3
:1044C00010F008F918B3E87820F00300401CE870F9
:1044D000B85D40F00200B85503223CA1204617F019
:1044E0005DFD2221204602F00BF81A2120461EF025
:1044F0007BF99DF8240040F0040009900123062276
:10450000032120461DF0B6FF31A026F06FF903E02D
:104510002249203941F8240018F0D8FE1F491839E3
:1045200041F82400BBF80010BAF8002001F596719C
:104530008A4273D91949103951F82410884202D39C
:10454000401A02E06EE0C943084442F2107188420A
:1045500082D3204610F0B0F818B9204610F0BAF80F
:1045600048B1E87820F00C00001DE870B85D40F01C
:10457000020032E05DE049E04531330061633537E8
:104580000D0A000045313200F68B0220453633001B
:10459000646335370D0A00004536340048120020A8
:1045A0005F630220C0D4010045363500706F776527
:1045B0007235370D0A0000004531310035380D0ADB
:1045C000000000009A5802201C860220453130006D
:1045D0003537370D0A20000080E0B855022243A18C
:1045E000204617F0DBFC2021204601F089FF18212E
:1045F00020461EF0F9F89DF8240040F004000990D0
:10460000BBF8002041463AA026F0F0F8012307222B
:10461000032120461DF02EFF1EE7FFE73A4941F82F
:10462000240019E700230722042120461DF022FF61
:104630001DE7204606F018FC344901EB0918B8F8CC
:104640004A10884206D8204606F019FCB8F84E10E9
:1046500088421AD9A87820F00300401CA870B85DE1
:1046600040F00200B855022229A1204617F096FC1E
:104670000C2120461EF0B8F81621204601F040FF1C
:104680009DF8240040F004000990204610F014F832
:1046900020B9204610F01EF800281FD0BA5D002A6D
:1046A0001CD021461BA026F0A1F8204A04EB4400B0
:1046B000B82102F8201002EB800123234B70012067
:1046C000488009A848600C720F4830384CB1C06867
:1046D00018F082FA4FF47A7018F0AAFD0BB0BDE81A
:1046E000F08F1146806818F077FAF3E7453900003B
:1046F00035352C566F6C203D2025642C42434C20D0
:104700003D2025640D0A0000381200200C1D0220F7
:104710004537000047554E203D2025642C546F74CA
:10472000616C4572723A25780D0A00003C890220BE
:1047300010B50446022C33D2204610F0A1F9E3282C
:104740000DD0204610F0CCF8002829D101212046B8
:104750001DF0FEFF20460FF0AFFF58B10EE02046DF
:1047600010F0BEF801281BD12046BDE81040002102
:104770001DF0EEBF20460FF0ADFF28B12046BDE88A
:10478000104001211DF03CBE20460BF09FFF002190
:10479000204605F0B9FE2046BDE8104005F07EBE7B
:1047A00010BD70B50546002006F056FC04462846AC
:1047B00010F064F8A0420FD0012C09D1284606F071
:1047C0007FFC4FF4FA7018F033FD284606F050FADB
:1047D000214628461DF0B2FF284606F003FB01469D
:1047E0002846BDE870401DF09FBF00002DE9F04154
:1047F00000242E480078FEF72BF8054628001BD031
:1048000018F020FA00212A4B03EB810000690443D1
:10481000491CC9B20229F7D300210126C1EBC1000E
:1048200000EB40004219107D052808D3186806FAED
:1048300001F73843186007E00020BDE8F0811F68E9
:1048400006FA01F087431F60507C800705D5586841
:1048500006FA01F21043586004E05A6806FA01F0C3
:1048600082435A60186806FA01F2104202D1586871
:10487000104203D098689043986002E09868104313
:104880009860224206D19868104203D0D86810433D
:10489000D86002E0D8689043D860491CC9B20829A2
:1048A000BCD318F0E5F90120C7E70000C81E0020BE
:1048B0005CA4042030B4002805D0017A022904D376
:1048C000002030BC70470020FBE70C4A02EB0112CD
:1048D0000021437812F831409C4208D102EBC10418
:1048E000646824B102EBC101496830BC0847491C27
:1048F000C9B20229EED30020E3E7000054DC02082D
:1049000010B5012809D0022804D0032808D00528B2
:104910000BD108E002F07AFE07E002F0FBFE04E0B3
:10492000FDF7BEFC01E001F05FF9012010BD0000C1
:104930007CB50546022D29D241B3088840B31F48F3
:104940004419207F012825D0086800908888ADF898
:1049500004001B49BDF8000049781BF0E3FA024649
:10496000D2B1BDF8021002EB8200B1EB001F05D9F5
:104970004FF6FF7101EA0010ADF802000820207622
:104980009DF8050088B1022814D107E000207CBD05
:1049900000207CBD00207CBD00207CBD69462846EF
:1049A0000AF04AFD30B900207CBD694628460AF06D
:1049B00041FB08B101207CBD00207CBD5CA404202B
:1049C000C81E002070B5002813D0406898B11A495D
:1049D00002880A8040884FF6FF7300EB800003EAEC
:1049E00040034B80012008711448047F2CB1002043
:1049F00070BD002070BD002070BD847E1048012C69
:104A000008D00A68426089880181012100201DF0D8
:104A10007BFE0FE00A4C241D2588AA4202D1628841
:104A2000934207D00A6842608988018101210020F1
:104A30001DF06AFE012070BDA8A404205CA404201F
:104A4000A01E002070B5002816D04068C8B12149CA
:104A50000288CA8040884FF6FF7300EB800003EAAB
:104A600040030B81012088721B48447F74B11BA056
:104A700025F0BCFE002070BD1AA025F0B7FE002076
:104A800070BD1BA025F0B2FE002070BDC47E1B4887
:104A9000012C0AD0D1F80620C0F80A204989C1812A
:104AA000012108461DF030FE11E0144C0A3425881F
:104AB000AA4202D16288934209D0D1F80620C0F8F8
:104AC0000A204989C181012108461DF01DFE0120EF
:104AD00070BD0000A8A404205CA404206173646677
:104AE0000D0A000061736466617364660D0A00005C
:104AF0006173617364660D0A00000000A01E00204F
:104B0000034608461146012B09D0022B05D0032B82
:104B100007D0052B07D101F091B802F0A1BD02F03A
:104B200023BEFDF7E7BB704770B5002807D040886B
:104B30000D4C002528B1012084F8200003E000205E
:104B400070BD84F8205009A025F050FE0B48458028
:104B5000058006210171A07E18B1002108461DF0D4
:104B6000D3FD012070BD00005CA4042047554E5FBA
:104B7000412053544F500D0A00000000A8A4042007
:104B800070B5002807D040880D4C002528B10120C1
:104B900084F8210003E0002070BD84F8215009A0B2
:104BA00025F024FE0B480581C58006218172E07E38
:104BB00018B1002101201DF0A7FD012070BD0000EB
:104BC0005CA4042047554E5F422053544F500D0AB9
:104BD00000000000A8A40420012070470EB5B0F525
:104BE0007A7F0CD85AB140F2EC43ADF80030019214
:104BF0008DF808106946FCF7B3FD01200EBD0020BA
:104C00000EBD0EB564280CD85AB140F2EA53ADF887
:104C1000003001928DF808106946FCF7FDF801207C
:104C20000EBD00200EBD0EB564280CD85AB140F25E
:104C3000E953ADF8003001928DF808106946FCF791
:104C4000EBF801200EBD00200EBD0000002809D0A9
:104C500041B1007800F07F00401EC0B2082803D3A5
:104C60000020704700207047CA788B78C0EBC000E6
:104C700042EA032200EB40030D4802EB8202184493
:104C8000C2F31A1202814A790B7942EA032202EB3B
:104C90008202C2F31A124281CA79897942EA012159
:104CA00001EB8101C1F31A118181012070470000DD
:104CB000F0AB04202DE9F04100280AD049B100787A
:104CC00000F07F00401EC2B2082A04D30020BDE8D5
:104CD000F0810020FBE7C8788B78C2EBC20440EA81
:104CE000032324482044401C43804C790D7944EA36
:104CF000052505808C794471C9790171C2EBC20028
:104D000000EB40061B48002738303044077505602B
:104D10004360437C8D0965F34513857C4F0967F338
:104D200045150F0967F386158574CD0865F3C30330
:104D300061F30003610861F3041343740024012547
:104D40000C4895400C4FA83806444FF4FA78386860
:104D5000C068284207D03068404504D9601CC0B202
:104D6000012118F08FFF641CE4B2082CEFD301205E
:104D7000ADE70000B8AB0420FC1E002000280AD0DC
:104D8000064902690A600178490702D50449806929
:104D9000086001207047002070470000F6110020D5
:104DA000FE11002000280AD0064902694A600178F5
:104DB000490702D5044980694860012070470020F6
:104DC00070470000F6110020FE1100202DE9FF5F62
:104DD0000446002001900290FDF7B0FA0090ACB1BB
:104DE000616899B1FE4E6078FE4D4FF03A08A6F525
:104DF000DF674FF00B0906F202220A280DD2DFE826
:104E000000F00C090D0D15151EF6F7F4002004B086
:104E1000BDE8F09F097800F031FA28E232780AB153
:104E20000020F4E7097800F029FA20E23278012A1C
:104E300001D00020EBE7097800F020FA17E2EA48F9
:104E400090F83D0002286ED196F82C0040B1002168
:104E500028680DF0A3F901201DF098FB0020D6E78B
:104E60000020FDF7C7FA012850D0FDF721FB82464C
:104E70009AF800B05FEA0A0053D000200FF026FD38
:104E80000178427841EA02248178C078090441EA35
:104E900000600443D548B4FBF0F0C0B20FF0E8FE68
:104EA0008DF80400D148B4FBF0F100FB1141D0486B
:104EB000B1FBF0F0C0B20FF0DBFE8DF80500CC487E
:104EC000B4FBF0F100FB114142F21070B1FBF0F0C5
:104ED000C0B20FF0CDFE8DF8060042F21070B4FBA8
:104EE000F0F100FB11416420B1FBF0F0C0B20FF013
:104EF000BFFE8DF807006420B4FBF0F100FB114009
:104F00000FF0B6FE8DF80800002424E087F800803A
:104F100087F8019000207880B649009817F05CFE71
:104F20001BE0002073E71FE00AEBC400401C0822CE
:104F300001A90BF0E3FA60B10121002024F00CFD7F
:104F40000121002001F0C4FA0121002017F076FAB7
:104F500003E0641CE4B25C45E6D3002128680DF050
:104F60001DF901201DF012FB9F4890F83D000B2811
:104F700018D00D2816D00F2814D098B1052811D0BC
:104F80000C280FD00E280DD00A280BD0092809D0E4
:104F9000012807D0062805D0072803D0032801D010
:104FA000042821D196F82C0040B1002128680DF08A
:104FB000F5F801201DF0EAFA002028E70020FDF7AF
:104FC00019FA012809D187F8008087F8019000209C
:104FD00078808849009817F0FFFD002128680DF0BF
:104FE000DDF801201DF0D2FA41E114E100E0D7E044
:104FF0007D4890F83D10A0F6EE00039002296ED196
:1050000096F82D0040B1002128680DF0C7F8012066
:105010001DF0BCFA0020FAE60020FDF7EBF90128AC
:1050200050D0FDF745FA82469AF800B05FEA0A00D0
:1050300053D001200FF04AFC0178427841EA022463
:105040008178C078090441EA006004436748B4FBF2
:10505000F0F0C0B20FF00CFE8DF804006348B4FB12
:10506000F0F100FB11416248B1FBF0F0C0B20FF06B
:10507000FFFD8DF805005E48B4FBF0F100FB114127
:1050800042F21070B1FBF0F0C0B20FF0F1FD8DF8FC
:10509000060042F21070B4FBF0F100FB11416420F5
:1050A000B1FBF0F0C0B20FF0E3FD8DF80700642013
:1050B000B4FBF0F100FB11400FF0DAFD8DF80800B1
:1050C000002424E087F80C8087F80D900120F881F7
:1050D0000399009817F080FD1BE0002097E61FE081
:1050E0000AEBC400401C082201A90BF007FA60B1CA
:1050F0000121084624F030FC0121084601F0E8F9BE
:105100000121084617F09AF903E0641CE4B25C45FB
:10511000E6D3002128680DF041F801201DF036FA91
:10512000314890F83D000B2818D00D2816D00F28D4
:1051300014D098B1052811D00C280FD00E280DD00E
:105140000A280BD0092809D0012807D0062805D045
:10515000072803D0032801D0042820D196F82D0079
:1051600040B1002128680DF019F801201DF00EFA59
:1051700000204CE60020FDF73DF9012808D187F812
:105180000C8087F80D90F8810399009817F024FDA2
:10519000002128680DF002F801201DF0F7F966E003
:1051A00092F83D000B281AD00D2818D00F2816D0E1
:1051B000022814D098B10A2811D009280FD0052848
:1051C0000DD00C280BD00E2809D0012807D00628B6
:1051D00005D0072803D0032801D0042847D10BE0CD
:1051E00098560220AC0200209A58022000E1F505F2
:1051F00040420F00A04F02200878012807D1032267
:105200001CA1002016F0CAFE002017F03BF9012077
:105210001DF0BCF92BE092F83D000B281AD00D28A8
:1052200018D00F2816D0022814D098B1092811D010
:1052300005280FD00C280DD00E280BD0012809D03E
:105240000A2807D0062805D0072803D0032801D054
:1052500004280CD10878012806D1032206A116F0F3
:105260009DFE012017F00EF901201DF08FF901209D
:10527000CDE5000045353400453533002DE9F05FBC
:1052800004460D460C2C02D30020BDE8F09FDFF849
:105290008C9201274FF00208A9F6A816022C01D023
:1052A000042C53D1092D4DD2DFE805F04C053838D8
:1052B0004C47473D4200022C25D001200FF006FB51
:1052C00028B30178427841EA02228178C078090443
:1052D00041EA006002433178592011FB00F0484454
:1052E000C0F81A20C17780F80480022C11D0002168
:1052F0008B480CF053FF307800211CF0FDFA317818
:1053000088480F5422E000200FF0E0FAD8E7002090
:10531000BBE7002184480CF041FFECE78349844857
:105320000CF03CFF12E0814982480CF037FF0DE0A1
:105330007E4981480CF032FF08E07C497F480CF040
:105340002DFF03E079497E480CF028FF032C01D0A3
:10535000052C27D1012D06D0022D72D0032D70D03F
:10536000092D1FD187E03078592110FB01F0484406
:105370000771DFF8D0B1DFF8D0A14FF00009032C9E
:1053800011D00FF037FA584546D1012009F06CFAD8
:1053900017F09CFF306259466C480CF0FFFE01206C
:1053A0000CF040F96DE00FF025FA58450DD10020C2
:1053B00009F05AFA17F08AFFF061624964480CF06C
:1053C000EDFE00200CF02EF95BE0F775707D88B1E2
:1053D00086F8179086F81590002009F045FA17F026
:1053E00075FFF0615B495A480CF0D8FE00200CF0C4
:1053F00019F946E0002158480CF0D0FE00201CF0BE
:10540000EFFA032255A1002016F0C8FD9AF801001A
:10541000401C8AF8010034E03776B07D90B186F800
:10542000189086F81690012009F01EFA17F04EFF2A
:105430003062484945480CF0B1FE01200CF0F2F80A
:105440001FE011E0002144480CF0A8FE032244A113
:10545000012016F0A3FD01201CF0C2FA9AF8010009
:10546000401C8AF801000CE00FF0C4F901463048F6
:105470000CF094FE05E00FF0BDF9014639480CF040
:105480008DFE012C0BD1002137480CF087FE012D39
:105490000AD0082D3CD0354929480CF07FFE012068
:1054A0001DF074F80120F0E60FF030F9044634B333
:1054B00020786178E27840EA0121A078000440EA8F
:1054C00002600143284D2879C00119F023FE287994
:1054D000D4F8161008EBC01019F01CFEA17E0420B1
:1054E0004FF47842FF290CD0297900EBC1108A21B2
:1054F0000BF0FAFC00211C480CF050FECFE7002016
:10550000C3E6297900EBC11089210BF0EDFCF1E72E
:10551000164909480CF042FEC1E700004060022035
:105520004C030020BC56022038030020AC020020AF
:1055300024030020E8020020D4020020FC02002006
:1055400010030020600300208006002014040020C7
:1055500000040020740300209C0300204536310025
:1055600045363000880300200C020020E4010020B2
:105570002DE9FC5F8146FCF7E1FE009099F80840B8
:10558000022C02D30020BDE8FC9FDFF858B40026AF
:105590000BF2A6779BF83A00DFF84CA4A7F6A81503
:1055A00001280AD00FF026F98046B9F1000F02D089
:1055B0002878022873D30020E5E799F80100DFF886
:1055C0002C844FF03A0923286AD0242802D02528B9
:1055D00053D166E00320291981F82E0020460FF0F0
:1055E000C7FA40F08001592004FB0075697604EB8E
:1055F000041000EB4411FE4811220144183105F15A
:105600002400FAF7ADFE022005F81E0F40F24520F7
:1056100060430AEB400707F23F200FF0F7F8D7F896
:105620003F022862B7F84302A88497F8450285F83C
:1056300026007E61BE61012120461CF05DF92046F6
:1056400009F012F99BF83D00082817D004EB44003C
:1056500008F8209008EB800111224A704C800098D5
:1056600017F0BAFA9BF83D00A0B1052812D00C281B
:1056700010D00E280ED009280CD0EBE104EB44002A
:1056800008F8209008EB80014E704C80009817F0CD
:10569000A3FAE7E70021204624F05EF9DAE1D4E03E
:1056A00066E028192C30867005210170C4EBC40017
:1056B00000EB4001CF4808441521FAF76AFE592053
:1056C00004FB00756E760021204600F019FF04EB04
:1056D000041000EB4411C64811220144183105F1B1
:1056E0002400FAF73DFE0220A8779BF83A00012833
:1056F00003D10121204621F093FAFDF779FA012820
:10570000BBD10020FDF79AF80128B6D19BF83D00E7
:1057100002280AD048B1092807D0052805D00C284E
:1057200003D00E2801D008280AD104EB440008F861
:10573000209008EB80014E704C80009817F04CFAD6
:105740009BF83D0038B1052805D00C2803D00E2861
:1057500001D0092891D104EB440008F8209008EB0F
:10576000800120224A704C80009817F035FA71E1D0
:1057700028190546407E002890D19C4B04EB44003C
:1057800003EB80081122019088F8012019356E750D
:10579000EE7417F09BFD0146974800EB8400C16151
:1057A00001202870592104FB017528712046FDF75E
:1057B0006FFA6876052807D1904904EBC4000844C5
:1057C00080795A2800D96E76012120461CF094F881
:1057D00040F2452060430AEB400000F23F200FF00A
:1057E00015F8C4EBC40000EB4001824808441521C1
:1057F000FAF7CFFD204609F037F87C48019900F808
:105800002190A8F802409BF83D0038B1052805D04A
:105810000C2803D00E2801D009280CD17848005D4F
:10582000AA2804D1204623F0FFFD022808D0002139
:10583000204624F091F84146009817F0CDF909E18F
:105840000021204624F088F804E16E4880450BD002
:105850006D48804508D06D48804505D06C4880452E
:1058600002D06C48804501D100208CE699F80100F7
:10587000DFF880B123280BF1150B78D0242802D053
:10588000252845D14EE02819467620460FF070F9BC
:105890008046592004FB007548F08001697604EBCE
:1058A000041000EB4411524811220144183105F153
:1058B0002400FAF755FD012005F81E0F40F245209F
:1058C00060430AEB4000064600F23F200EF09EFFC8
:1058D00006F23F2630682862B088A884B07985F83F
:1058E000260000214C480CF059FC99F801104A4858
:1058F0004FF4784224290CD0007908F11F0808F0F1
:10590000FF01C0010BF0F0FA012120461BF0F4FF6B
:10591000A0E0007908F11F0808F0FF01C0010BF0BA
:10592000E3FAF1E70021204600F0EAFD15213148B5
:10593000FAF72FFD15215846FAF72BFD04EB04105A
:1059400000EB44112A485922014404FB0270054629
:10595000183124301122FAF703FD0120A8773CB159
:105960000FF082FA00212D480CF018FC72E006E0DE
:105970000FF05EFA00212A480CF010FC6AE02819AA
:10598000417E69BB4FF0010980F819902046FDF770
:105990007FF9592101FB04714876012120461BF053
:1059A000ABFF40F2452060430AEB400000F23F208D
:1059B0000EF02CFF20001B4F42F210744CD015212A
:1059C0005846FAF7E6FC85F81690287E48B12E7600
:1059D000AE75DAF89E14DAF8B60681422DD323E0CC
:1059E00038E06CE09A5802205F630220B84F022032
:1059F000A08502204C4D02209856022026860220C7
:105A000096100020B4040020C80400202C050020BB
:105A1000400500205405002060030020C40300203E
:105A2000B0030020740300200219914205D8CAF87F
:105A30009E04DAF8BA06CAF8A204012008F014FF9E
:105A4000254926480CF0AAFB01200BF0EBFD17F0CE
:105A50003DFC2862012096E515212148FAF799FCC2
:105A600085F81590E87DF0B1EE756E75DAF81410D2
:105A7000DAF82C02814208D30219914205D8CAF8FB
:105A80001400DAF83002CAF81800002008F0ECFE22
:105A9000114914480CF082FB00200BF0C3FD17F0F5
:105AA00015FCE861D6E76F600F48804502D00F48CB
:105AB0008045CFD100210E480CF070FBCAE7AF60E3
:105AC0000C48804502D00C488045C3D100210848CD
:105AD0000CF064FBBEE700009C03002014040020CF
